:020000040800F2
:100000004807002029020008750400086D04000854
:10001000710400085D030008730A00080000000076
:10002000000000000000000000000000D1060008F1
:10003000950300080000000005050008E907000816
:10004000430200084302000843020008430200087C
:10005000430200084302000843020008430200086C
:10006000430200084302000843020008430200085C
:10007000430200084302000843020008430200084C
:10008000430200084302000843020008430200083C
:10009000430200084302000843020008430200082C
:1000A000430200084302000843020008430200081C
:1000B000430200084302000843020008430200080C
:1000C00043020008430200084302000843020008FC
:1000D00043020008550800084302000843020008D4
:1000E00043020008430200084302000843020008DC
:1000F00043020008430200084302000843020008CC
:1001000043020008430200084302000843020008BB
:1001100043020008430200084302000843020008AB
:10012000430200084302000843020008430200089B
:10013000430200084302000843020008430200088B
:10014000430200084302000843020008430200087B
:10015000430200084302000843020008430200086B
:10016000430200084302000843020008430200085B
:10017000430200084302000843020008430200084B
:10018000430200084302000800F002F800F03CF8C7
:100190000AA090E8000C82448344AAF10107DA45E2
:1001A00001D100F031F8AFF2090EBAE80F0013F0F8
:1001B000010F18BFFB1A43F0010318471815000080
:1001C00038150000103A24BF78C878C1FAD8520711
:1001D00024BF30C830C144BF04680C6070470000C1
:1001E0000023002400250026103A28BF78C1FBD840
:1001F000520728BF30C148BF0B6070471FB501F0E0
:1002000063FA1FBD10B510BD00F033F81146FFF7BB
:10021000F5FF00F0BDFC00F051F803B4FFF7F2FF6A
:1002200003BC00F06DFC0000094880470948004706
:10023000FEE7FEE7FEE7FEE7FEE7FEE7FEE7FEE796
:10024000FEE7FEE704480549054A064B70470000F3
:10025000ED07000889010008480100204807002038
:1002600048030020480300207047704770477047DC
:100270007047754600F028F8AE46050069465346BB
:1002800020F00700854618B020B5FFF7DBFFBDE87A
:1002900020404FF000064FF000074FF000084FF0ED
:1002A000000B21F00701AC46ACE8C009ACE8C0097E
:1002B000ACE8C009ACE8C0098D4670470446AFF30E
:1002C00000802046FFF7A9FF00487047E4000020A7
:1002D0001CB50121202000F017F94FF47860009040
:1002E00001208DF8040000208DF8060003208DF811
:1002F000050001208DF807006946154800F04BF80D
:100300004FF48050009000208DF8040003208DF8F9
:10031000050001208DF8070069460D4800F03BF804
:1003200001200C4908600A2000F00CFC00200A495A
:10033000C1F8AC020A2000F005FC01200549086064
:100340000A2000F0FFFB00200349C1F8A8021CBDF1
:1003500000140240AC8242420080424200BFFEE7ED
:100360007CB500200090019008480090084801905A
:100370006D46002407E0284600F07EFBC82000F010
:10038000E1FB2D1D641C022CF5DB7CBD050010007B
:1003900004000C007047F0B50A4600210023002439
:1003A00000BF3DE0012505FA01F3156805EA0304E5
:1003B0009C4234D105684F000326BE40B54305601A
:1003C00015794E00B5400668354305601579012D55
:1003D00002D01579022D16D185684F000326BE4044
:1003E000B543856055794E00B540866835438560D4
:1003F000456801268E40B5434560456896798E4034
:10040000B6B235434560C5684F000326BE40B543CC
:10041000C560D5794E00B540C6683543C560491CF6
:100420001029BFD3F0BDF0B5002300244D07ED0E19
:1004300002FA05F3CE1000F1200555F826504E07BC
:10044000F70E0F26BE40B543CF1000F1200646F848
:100450002750CE1000F1200555F8265045EA030438
:10046000CE1000F1200545F82640F0BD00BFFEE7A4
:1004700000BFFEE77047000070B5002100230F2287
:10048000C4781CB3174C246804F4E064C4F5E06439
:10049000C4F30721C1F10404E3B20A4144789C404B
:1004A000E1B28478144021430C07210E0E4C0578EC
:1004B0006155047804F01F050124AC4005786D11E6
:1004C000AD0005F1E025C5F8004109E0047804F02D
:1004D0001F050124AC40054D0678761145F82640ED
:1004E00070BD00000CED00E000E400E080E100E001
:1004F00002490143024A1160704700000000FA05FA
:100500000CED00E07047000029B1064A1268024372
:10051000044B1A6004E0034A12688243014B1A60DC
:10052000704700003038024029B1064A1268024381
:10053000044B1A6004E0034A12688243014B1A60BC
:100540007047000044380240F0B50021002200242A
:10055000022500260223324F3F6807F00C0121B12B
:10056000042905D0082937D105E02E4F076036E071
:100570002D4F076033E02A4F3F1F3F68C7F3805677
:10058000274F3F1F3F6807F03F036EB1264FB7FB71
:10059000F3F7DFF88CC0ACF1040CDCF800C0CCF34E
:1005A000881C07FB0CF40CE01E4FB7FBF3F7DFF8D9
:1005B00070C0ACF1040CDCF800C0CCF3881C07FB65
:1005C0000CF4174F3F1F3F68C7F301477F1C7D00A6
:1005D000B4FBF5F7076002E0124F076000BF00BFF1
:1005E0000F4F3F6807F0F0010909104F7A5C076868
:1005F000D74047600A4F3F6807F4E051890A0B4F24
:100600007A5C4768D7408760054F3F6807F46041D0
:10061000490B064F7A5C4768D740C760F0BD0000C1
:10062000083802400024F40000127A000A0000207A
:100630002DE9F04105460026B04600244FF4C017CE
:10064000012021490860142000F07CFA00201F4995
:10065000C1F89C02022000F075FA00BF29E00120D9
:100660001949091D0860052000F06CFA07F4000024
:10067000B0F5000F04D1012013490831086003E0F0
:10068000002011490831086000200F49091D086049
:10069000052000F057FA0D48D0F830826400B8F118
:1006A000010F01D144F001047F00052000F04AFA57
:1006B000761C182ED3D3012003490860142000F0C3
:1006C00041FA2C60BDE8F0819C82424200804242A7
:1006D000704700000CB5002001900090344800687D
:1006E00040F480303249086000BF3148006800F4AF
:1006F000003000900198401C0190009818B90198B2
:10070000B0F5A04FF1D12A48006800F4003010B1D4
:100710000120009001E0002000900098012846D1BF
:1007200023484030006840F0805021494031086043
:100730002048006840F440401E4908601C480830CA
:1007400000681B49083108600846006840F4004012
:1007500008600846006840F4A05008601648091F69
:100760000860081F006840F08070091F086000BF23
:100770000F48006800F000700028F9D040F20570C2
:100780000E4908600A480830006820F00300084954
:10079000083108600846006840F00200086000BFA9
:1007A00003480830006800F00C000828F8D10CBDA0
:1007B000003802400070004008544007003C0240EE
:1007C000042808D14FF0E021096941F004014FF0FD
:1007D000E022116107E04FF0E021096921F00401F6
:1007E0004FF0E022116170477047000010B51548C6
:1007F000006840F47000134908601348006840F036
:1008000001001149086000200F49083108600E48B6
:1008100000680E4908400C4908600D48091D086031
:10082000081F006820F48020091F08600020064986
:100830000C310860FFF74EFF4FF00060014980392E
:10084000086010BD88ED00E000380240FFFFF6FEB2
:100850001030002410B540F225511D4800F04AF830
:1008600010B31B4800F000F9C4B21A48008800F425
:100870000040C8B91748008800F4804060B10A2CD5
:1008800003D000201349088020E01248008840F47B
:1008900000401049088019E00D2C06D10D48008851
:1008A00040F480400B49088010E00A480088C0F3FB
:1008B0000D0009490C5407480088401C0549088070
:1008C00008460088C72801DD0020088010BD000010
:1008D00000100140080000201C00002021B1828986
:1008E00042F40052828104E082894DF6FF731A407F
:1008F0008281704770B50246002400230025002045
:1009000040F66A16B14200D100BFC1F3421501F0B2
:100910001F03012606FA03F3012D02D19689334005
:1009200006E0022D02D1168A334001E0968A334058
:100930000C12012606FA04F41688344013B10CB1E7
:10094000012000E0002070BDF0B503460024002621
:100950000025002040F66A17B94200D100BF1846B2
:10096000C1F3421401F01F06012707FA06F5012C16
:1009700001D10C3004E0022C01D1103000E0143021
:100980001AB107682F43076002E00768AF430760AA
:10099000F0BD00002DE9FF4705460E460024A146A4
:1009A00000BFA046B08900B100BF2C8A24F4405497
:1009B000F08804432C82AC8941F20C608443B088F7
:1009C00031890843718908430443AC81AC8A24F41B
:1009D0004074B0890443AC826846FFF7B5FD2048F7
:1009E000854202D01F48854202D1DDF80C9001E01B
:1009F000DDF80890A88900F4004040B109EBC90077
:100A000000EB091031684900B0FBF1F707E009EB92
:100A1000C90000EB091031688900B0FBF1F76420D0
:100A2000B7FBF0F004012009642101FB1078A889CC
:100A300000F4004040B1322000EBC800B0FBF1F000
:100A400000F00700044308E0322000EB08106421A6
:100A5000B0FBF1F000F00F0004432C81BDE8FF87EC
:100A6000001001400014014001468888C0F30800CE
:100A7000704700BFFEE7000070B5044625680120FE
:100A80001D490860052000F05DF800201B49C1F8F1
:100A90009C02012000F056F8002623E001201649B0
:100AA000091D0860052000F04DF805F40000B0F5C0
:100AB000000F04D1012010490831086003E0002034
:100AC0000D4908310860052000F03CF800200A4973
:100AD000091D0860052000F035F86D00052000F0C4
:100AE00031F8761C182ED9DB0120034908600A2052
:100AF00000F028F870BD00009C8242420080424213
:100B0000014600BF7047000010B504466FF00400B6
:100B1000FFF756FEE11704EB5171C1F3C701074A15
:100B200011701046007800EB4001C1EBC0104FF689
:100B3000FF7101EAC0000249088010BD00000020DA
:100B4000020000200146114A12784A434FF0E02388
:100B50005A6100229A611A46126942F001021A6132
:100B600000BF4FF0E022106900F001021AB100F45A
:100B70008032002AF5D04FF0E022126922F0010203
:100B80004FF0E0231A6100229A61704700000020B4
:100B90002DED0A8B84B000200390019000BF9FEDE3
:100BA000440BB0EE408AF0EE608A00BF00244FF4A0
:100BB000A060FFF79DFCA820FFF7A6FF4FF4E130EF
:100BC00000F08CF8FFF784FBFFF7CAFB6EE04FF6EE
:100BD000FF70039003A8FFF74FFF3748039003A867
:100BE000FFF74AFF4FF40200039003A8FFF744FF0A
:100BF0001420FFF7A7FF02A8FFF71AFD0298000CC8
:100C00008DF806000298000A8DF805000298C0B21F
:100C10008DF804009FED290B53EC102B51EC180BB1
:100C200000F026FC15D89FED270B53EC102B51EC50
:100C3000180B00F05DF941EC1A0B9FED240B53ECFF
:100C4000102B00F017FB41EC190B00F0A9FA044639
:100C500026E053EC182B9FED1F0B51EC100B00F00E
:100C600009FB41EC1C0B9FED170B53EC102B00F014
:100C70003FF941EC1B0B9FED150B53EC102B00F0D3
:100C8000F9FA41EC1A0B9FED110B53EC102B00F00D
:100C900025FC41EC190B00F083FA044604F4FA54E5
:100CA00044F40030039003A8FFF7E6FE8FE700004E
:100CB000C746205ED7FF2340AAAA0200000000001A
:100CC00000000000000000000000244000000000C0
:100CD0000000E040000000000000F0BF10B588B048
:100CE000044601210846FFF70FFC01211020FFF701
:100CF0001BFC072209212248FFF795FB07220A2146
:100D00001F48FFF790FB4FF4C060069002208DF85B
:100D10001C008DF81D0000208DF81E0001208DF8AC
:100D20001F0006A91648FFF736FB02940020ADF815
:100D30000C00ADF80E00ADF81000ADF814000C205A
:100D4000ADF8120002A90F48FFF724FE01210D485B
:100D5000FFF7C4FD012240F225510A48FFF7F4FDD8
:100D600025208DF8040003208DF805008DF806007D
:100D700001208DF8070001A8FFF77EFB08B010BD29
:100D8000000002400010014010B591EA030F48BF77
:100D900083F0004300F1B683841A71EB030C05D293
:100DA000121943EB0C03001B61EB0C01DFF824E18B
:100DB0004FEA1154A4EB135C1EEA430F18BF9EEADE
:100DC000445F73D023EA0E03DCF1200E21EA0451C4
:100DD00043F4801332D322FA0CFE10EB0E0023FAF8
:100DE0000CFE41EB0E01CCF1200E03FA0EFE10EBCF
:100DF0000E0051F10001B1F5801FCCF1200E32D26E
:100E000001EB045112FA0EF2BDE8104058BF7047D2
:100E1000401C38BF5FEA420218BF7047002814BF69
:100E200020F0010041F100014FEA410313F5001FDA
:100E300038BF7047A1F1C04100F014BB012A43EB59
:100E40000302ACF1200CDCF11F0E32BF4FF0000E9C
:100E500023FA0CF310EB030041EB0451B4EB115FE8
:100E6000D0D0A1EB045101F5801149085FEA3000B0
:100E700001EB04510ED350F1000038BF12FA0EFE00
:100E800008D1BDE81040C9E7401C38BF5FEA420204
:100E9000CAD1C3E7BDE810404FEA410313F5001F74
:100EA00038BF7047A1F1C04100F0DCBA9EEA445F50
:100EB00008D011EA5E0FBDE8104004BF01F0004108
:100EC00000207047BDE8104070B500F07DFA00BF0B
:100ED00064FBBE3E0000E0FF491058BFC1F1404135
:100EE0005B1058BFC3F140438B42EFF30080704763
:100EF0002DE9C04130B4DFF8A0C23CEA111418BF9C
:100F00003CEA131400F0EC8081EA03051CEA11149A
:100F100044EAD57418BF1CEA131500F0C780A4EB8F
:100F200005044FF0004545EAC12145EAC32341EAE3
:100F3000505143EA525304F17F74994204F500344E
:100F40004FEAC0204FEAC22208BF904200F09C80C6
:100F50004FEA13650FF24016765D4FEA134506FB24
:100F600005F7C7F1807706FB07F74FEAD737A7FBEE
:100F700003687642C8F58038A7FB06CE38BFA8F1D3
:100F8000010807FB08E64FF0000EA6FB028CE6FB0B
:100F900003CEDCF1000CCEF1004E38BFAEF1010EF5
:100FA000A6FB0C584FF000074FF00005E6FB0E873C
:100FB000A1FB08C6A0FB07CE16EB0E0645F1000507
:100FC000E1FB076515F1E04E7EBFA4F580345FEAD2
:100FD00046066D4116F1800745F100054FEA1727D7
:100FE0004FEA066647EA0567A6F1DE46B6F1805F7E
:100FF0004FEA15251FD9384624F0010C05EBC471C2
:10100000BCF1FE6F01EB0C1102D8F0BCBDE8008111
:1010100024425CBF01F5801E9EEAC47F02D4F0BC6E
:10102000BDE80081244238D4F0BCA1F1C041BDE844
:10103000004100F017BA4FEAD22242EA43524FEA87
:10104000D323A7FB02864FEAD02040EA415007FB9A
:1010500003661EEA0E0F4FEAD12105FB026658BF58
:10106000A6EB0056B6EB00564FEA520E4EEAC37E90
:1010700018EB0E0E56EB530EBDD518EB02085E4171
:101080007F1C55F10005B6E74FF480154FF00007BF
:101090004FF000064FF00008ADE7F0BC4FF0000045
:1010A00001F1C04101F00041BDE8008111EA0C1FCF
:1010B0000CEA131500D00CE013EA0C1F00F0258099
:1010C0004FF00000F0BC81EA030101F00041BDE8EF
:1010D0000081F0BCBDE8004181EA030100F0C2B923
:1010E000F0BCBDE8004170B500F06EF9097EFC3E31
:1010F00000F007B881EA03014FF0000001F0004161
:10110000704781EA030100F0ADB9F0BCBDE80041D1
:101110004FF0000021497047FFFDFBF9F7F5F4F2AD
:10112000F0EEEDEBE9E8E6E4E3E1E0DEDDDBDAD882
:10113000D7D5D4D3D1D0CFCDCCCBCAC8C7C6C5C4E0
:10114000C2C1C0BFBEBDBCBBBAB9B8B7B6B5B4B3F7
:10115000B2B1B0AFAEADACABAAA9A8A8A7A6A5A4E2
:10116000A3A3A2A1A09F9F9E9D9C9C9B9A999998A6
:101170009797969595949393929191908F8F8E8E49
:101180008D8C8C8B8B8A89898888878786858584D6
:1011900084838382828181800000FF070000F87FC2
:1011A0004FEA1153A3F58063D3F11E03A8BFD3F117
:1011B000200C08DB4FF0004242EAC12252EA5052B2
:1011C00032FA03F0704709420BD4102BC4BF002041
:1011D000704703F5787CBCF1FF3F05D04FF0FF303E
:1011E00070474FF00000704770B500F0EDF800BF99
:1011F0004992248000207047F0E7000051EA030C78
:1012000017D41CF5801F58BFBCF5801F00F1068065
:10121000994218BF704708BF9042704707D711F531
:10122000801F58BF13F5801F19D499427047894217
:1012300070471CF5801F08D5BCF5801FF7D58B4281
:1012400018BF704708BF824270474FF4001C1CEB68
:10125000410F38BF1CEB430F01D28B42704770B572
:1012600000F0B2F8922449004FF000514FF0805343
:10127000FFF732BEDFF848C170B51CEA111E1EBF71
:101280001CEA13159EEA0C0F95EA0C0F00F06F8014
:1012900081EA030423EA4C134EEAD47E21EA4C117E
:1012A00041F4801143F48013AE44A1FB024CA0FB37
:1012B0000365AEF17F7E361955EB0C05A1FB034C9F
:1012C0004CF10003A0FB021C16EB0C06654153F128
:1012D0000003094218BF46F0010613F4007F0BD14A
:1012E0004FEA03314FEA0530340341EA155140EA31
:1012F00016506FF003020AE04FEAC3214FEAC520FF
:10130000F40241EA555140EA56506FF0020202EBF6
:101310002E4201EB025585EACE710AD05FEA440CF9
:1013200018BF24F0004450F1000041F1000120EA10
:10133000D47040F2FE7C624500D270BDA84214BF5A
:101340004FF080444FF04044002E08BF0024BEF10F
:10135000806FA8BFA1F1C041BDE8704080F28280DB
:101360004FF0000001F1C04101F0004170479EEADA
:101370000C0F0CEA131518BF95EA0C0F06D04FF0AE
:10138000000081EA030E0EF0004170BD00F01CF871
:101390008900013E00F007B800F009B84FEA430C9D
:1013A0005FEA5C5C08D081EA030100F05BB84FEAB9
:1013B000410C5FEA5C5CF6D14FF0000001497047D8
:1013C0000000FF070000F87F0EF1020E2EF0030E62
:1013D0005EF8046B364205D4012A43EB030515F58C
:1013E000001F12D8012841EB010C1CF5001F0CD87E
:1013F0000ED14FEAD17C15F5001F0CEB4C0C0CF113
:10140000020C08BF4CEBD37C04E04FF0080C01E069
:101410004FEAD37C0CEB4C0526FA05F606F00706DE
:10142000B6F1040C06D20EEB860CBDE870404CF011
:10143000010C6047DFE80CF0090B02024FF000419D
:101440004FF00000A1F5002170BD1946104601289B
:1014500051EB010418BFD4F5001484BF002001F043
:10146000004170BD0808A0F500114FEA3101704736
:1014700053EA010C17D41CF5801F58BFBCF5801F20
:1014800000F106808B4218BF704708BF8242704748
:1014900007D713F5801F58BF11F5801F19D48B4251
:1014A00070479B4270471CF5801F08D5BCF5801F14
:1014B000F7D5994218BF704708BF904270474FF464
:1014C000001C1CEB430F38BF1CEB410F01D29942AB
:1014D00070470FB40CBC03BCFFF7C1BE91EA030F09
:1014E00010B581F000413FF557AC83F0004300F0A8
:1014F00009B8000010B591EA030F48BF83F000431C
:101500003FF54AAC841A71EB030C07D212198CF028
:10151000004C43EB0C03001B61EB0C01DFF8A4E172
:101520004FEA1154A4EB135C1EEA430F18BF9EEA66
:10153000445F00F0B08023EA6E03524221EA045176
:10154000C3EB6E0338BF5B1EDCF1200E25D322FAFD
:101550000CFE10EB0E0043FA0CFE41EB0E01CCF139
:10156000200E03FA0EFE10EB0E0051F10001CCF13B
:10157000200E29D412FA0EF201EB0451BDE81040FE
:1015800058BF7047401C1CBFB2F1004F7047002885
:101590000CBF491C20F00100704712EB020E43EB18
:1015A000030218BF4FF0010E4EEA4202ACF1200CCC
:1015B000DCF11E0E54D943FA0CFE10EB0E0051F173
:1015C000FF31CCF11E0ED5D50EF1010E12FA0EFE32
:1015D000404141EB010101EB445C5FEA5C5C10D9E6
:1015E00010EBDE7001EB045138BFBEF1004FBDE8D7
:1015F000104018BF704700280CBF491C20F00100A4
:10160000704730D24FEAD42C11F5001124F4006455
:101610001BD0B1FA81F20B3AA41AA41ED2F1200316
:10162000914030FA03F31943904001EBCC71002C48
:1016300001EB0451BDE81040A8BF704701F1C04163
:101640004FF0000001F000417047B0FA80F310FA4B
:1016500003F100D110BDE41A173C4805C90AE4E7BC
:1016600001EB045110BD491001EB0451BDE81040DD
:101670004FEA300002E04FF0000170474A0008BF17
:101680000042F8D0B2F5001F28BF704701F00041BA
:101690004FF0000070479EEA445F07D011EA5E0FEA
:1016A000BDE8104004BF002100207047BDE8104095
:1016B00070B5FFF789FE00BF40DFF63E83F00041C2
:1016C000104670470000E0FF4FF04070E1EE100A56
:1016D00070470000F4160008000000201C00000005
:1016E000C4010008101700081C0000202C0700008F
:1016F000E001000800000000000000000000000001
:1017000000000102030401020304060708090000A7
:040000050800018965
:00000001FF
